S012000046696E616C5F50726F6A2E737265632E
S113000071C0000051C1000060C100006DC100005A
S1130010BFC10000CEC10000D6C1000082C00000F4
S113002080C000007EC000007CC000007AC00000D8
S113003078C0000076C0000074C0000072C00000E8
S113004070C000006EC000006CC000006AC00000F8
S113005068C0000066C0000064C0000062C0000008
S113006060C000005EC000005CC000005AC0000018
S113007058C00000B2C1000054C0000052C00000CB
S113008050C000004EC000004CC000004AC0000038
S113009048C0000046C0000044C0000042C0000048
S11300A040C000003EC000003CC000003AC0000058
S11300B038C0000036C0000034C0000032C0000068
S11300C030C000002EC000002CC000002AC0000078
S11300D028C0000026C0000024C0000022C0000088
S11300E020C0000011241FBECFEFD1E2DEBFCDBF80
S11300F000E00CBF12E0A0E0B2E0EEE7F9E000E0BF
S11301000BBF02C007900D92AA30B107D9F722E0C5
S1130110AAE0B2E001C01D92AD31B207E1F743D2CB
S11301202CC499C182E088B987E085B9089581E03B
S113013088B986D2E99814C208950F931F93CF9378
S1130140DF931F921F92CDB7DEB780E888B968EEBF
S113015073E080E090E0ADD2809116029091170296
S113016088B960ED77E080E090E0A3D200911602B8
S113017010911702CE010196DCD10F3F110509F051
S113018038F4E981FA8180818C7F8160808323C087
S1130190C801805991408D32914030F4E981FA814F
S11301A080818C7F808317C0C8018C5B9340873427
S11301B0910530F4E981FA818081836080830BC0EA
S11301C0045813400333110530F4E981FA81808126
S11301D08C7F82608083E981FA8180818F70806165
S11301E080830F900F90DF91CF911F910F9108950D
S11301F0CF93DF931F921F92CDB7DEB784E088B907
S113020064E670E080E090E054D2CE01019644D1DF
S1130210CE01019653D10F900F90DF91CF910895A5
S113022080E288B964E670E080E090E042C208951C
S11302308FEF87B99FEC91B984B910BA80EF8AB96E
S113024080E38DB9E9E6F0E080818260808380817B
S113025088608083808180618083808180688083DE
S1130260EAE6F0E080818260808380818860808318
S11302708DB38F638DBB089510921202EAE7F0E00C
S1130280808180688083ACE7B0E08C9181648C933A
S1130290808180648083808184FFFDCFEAE7F0E081
S11302A080818860808308951F920F920FB60F9209
S11302B011248F93809113028460809313028F9191
S11302C00F900FBE0F901F9018951F920F920FB6AC
S11302D00F9211248F9381E0809318028F910F90D5
S11302E00FBE0F901F9018951F920F920FB60F928A
S11302F011240BB60F922F933F934F935F936F93F9
S11303007F938F939F93AF93BF93EF93FF934A9BF6
S113031016C080EF88B964E670E080E090E0C9D14F
S113032081E0809312028FEF9FEF909315028093E8
S11303301402EAE7F0E080818064808316C08FE0D5
S113034088B964E670E080E090E0B3D110921202C4
S113035080911402909115029093170280931602D3
S113036080911302806880931302FF91EF91BF91F3
S1130370AF919F918F917F916F915F914F913F9139
S11303802F910F900BBE0F900FBE0F901F901895DA
S11303901F920F920FB60F9211248F938091130224
S11303A08062809313028F910F900FBE0F901F9065
S11303B018951F920F920FB60F9211240F900FBE33
S11303C00F901F9018951F920F920FB60F92112441
S11303D00F900FBE0F901F9018951F920F920FB69B
S11303E00F9211240BB60F922F933F934F935F9369
S11303F08F939F93EF93FF9320917800309179002E
S1130400822F90E0932B409114025091150284178F
S1130410950720F080911402909115029093150293
S11304208093140228B980911202882329F0EAE704
S1130430F0E0808180648083FF91EF919F918F91A0
S11304405F914F913F912F910F900BBE0F900FBE74
S11304500F901F9018951F920F920FB60F921124B0
S113046015B8CFEFC8B968EE73E080E090E021D111
S113047018B864EF71E080E090E01BD1C8B968EE71
S113048073E080E090E015D118B864EF71E080E08B
S113049090E00FD1C8B9FFCFCF93DF93EC0183E095
S11304A090E046D199838883CD2B09F462D2FC0174
S11304B0108212821182DF91CF910895FC01892B61
S11304C009F457D2A0910F02B0911002109731F0A5
S11304D08081918112969C938E93119780910B0247
S11304E090910C02892B69F480819181AAE0B2E099
S11304F012969C938E93119714969C938E931397B4
S11305000CC080910D0290910E02892B31F48081F0
S1130510918190930E0280930D02AAE0B2E0808153
S1130520918116969C938E9315978C918F5F8C93E3
S1130530089520910F0230911002232B09F419D24F
S1130540E0910D02F0910E02DC01ED93FC933097E3
S113055031F08181928190930E0280930D0208956F
S11305600F931F93CF93DF9380910B0290910C0212
S1130570009769F00AE012E0FC01D181C281F80120
S1130580D183C2836DD18D2F9C2F0097A9F7EAE008
S1130590F2E016821582148213821082DF91CF91C9
S11305A01F910F910895E1E6F0E080E88083C1E0B7
S11305B0C083F894ABD06AE070E080E090E079D03A
S11305C0ABD036DE59DEC0931302789480911302C7
S11305D018B888233CF4809113028F778093130218
S11305E0ACDDF4CF82FF07C0809113028B7F809330
S11305F01302FEDDEBCF85FF0CC0809113028F7DCB
S1130600809313020DDE80911302826080931302A3
S1130610DDCF80FF0CC0809113028E7F8093130284
S113062086DD80911302826080931302CFCF81FF15
S1130630CDCF809113028D7F8093130273DDC6CFDB
S1130640CF92DF92EF92FF9280911802811125C020
S1130650C12CD12C760180911102A7019601280F9B
S1130660311D411D511DDA01C90183709927AA2743
S1130670BB27FC01EA5FFD4F808182B964E170E031
S113068080E090E016D03FEFC31AD30AE30AF30ADE
S1130690809118028823F9F203C0C12CD12C760171
S11306A08C2D837080931102FF90EF90DF90CF9098
S11306B00895AB01BC01E1E8F0E0808188608083AB
S11306C088EE93E09093890080938800E4E8F0E05A
S11306D08081918111821082B19A80E090E0DC01E6
S11306E00CC0B19906C084179507A607B707C8F3CD
S11306F00895B19A0196A11DB11D481759076A07BB
S11307007B0719F0B19BEDCFF4CF0895E1E8F0E059
S1130710808182608083089584B5836084BD84B5BC
S1130720806884BD85B5836085BD80E187BD0895FB
S11307300F931F93CF93DF938230910510F482E0DF
S113074090E0E0911B02F0911C0220E030E0A0E078
S1130750B0E0309719F1408151810281138148172B
S11307605907C8F08417950769F4109731F0129669
S11307700C93129713961C9327C000931B0210939B
S11307801C0222C02115310519F04217530718F431
S11307909A01BD01EF01DF01F801DBCF211531051D
S11307A0F9F0281B390B2430310580F48A819B81B0
S11307B06115710521F0FB019383828304C090933A
S11307C01C0280931B02FE01329644C0FE01E20F1C
S11307D0F31F8193919322503109398328833AC0BE
S11307E02091190230911A02232B41F42091020224
S11307F03091030230931A022093190220910002CF
S1130800309101022115310541F42DB73EB74091D5
S1130810040250910502241B350BE0911902F0915A
S11308201A02E217F307A0F42E1B3F0B281739070F
S113083078F0AC014E5F5F4F2417350748F04E0F38
S11308405F1F50931A02409319028193919302C03F
S1130850E0E0F0E0CF01DF91CF911F910F91089577
S1130860CF93DF93009709F481C0FC013297138280
S11308701282A0911B02B0911C02109781F4208176
S11308803181820F931F2091190230911A02281787
S1130890390751F5F0931A02E093190267C0ED018C
S11308A020E030E0CE17DF0740F44A815B819E01EF
S11308B041155105F1F0EA01F5CFD383C28340819C
S11308C05181840F951FC817D90759F488819981DC
S11308D0840F951F0296918380838A819B819383E1
S11308E082832115310529F4F0931C02E0931B0245
S11308F03DC0E901FB83EA8349915991C40FD51F97
S1130900EC17FD0761F480819181840F951F029695
S1130910E90199838883828193819B838A83E0E0C0
S1130920F0E012968D919C911397009719F0FD01B8
S1130930DC01F7CF8D919C9111979D012E5F3F4F64
S1130940820F931F2091190230911A022817390738
S113095069F4309729F410921C0210921B0202C011
S113096013821282B0931A02A0931902DF91CF91DD
S1110970089581E090E0F89400C0F894FFCF61
S10D097E00001D02200030280605C9
S9030000FC
